{
  "_format": "hh-sol-artifact-1",
  "contractName": "SocialMediaDapp",
  "sourceName": "contracts/SocialMedia.sol",
  "abi": [
    {
      "inputs": [],
      "stateMutability": "nonpayable",
      "type": "constructor"
    },
    {
      "anonymous": false,
      "inputs": [
        {
          "indexed": false,
          "internalType": "uint256",
          "name": "groupId",
          "type": "uint256"
        },
        {
          "indexed": false,
          "internalType": "address",
          "name": "admin",
          "type": "address"
        },
        {
          "indexed": false,
          "internalType": "string",
          "name": "name",
          "type": "string"
        },
        {
          "indexed": false,
          "internalType": "string",
          "name": "description",
          "type": "string"
        }
      ],
      "name": "GroupCreated",
      "type": "event"
    },
    {
      "anonymous": false,
      "inputs": [
        {
          "indexed": false,
          "internalType": "uint256",
          "name": "groupId",
          "type": "uint256"
        },
        {
          "indexed": false,
          "internalType": "address",
          "name": "sender",
          "type": "address"
        },
        {
          "indexed": false,
          "internalType": "string",
          "name": "message",
          "type": "string"
        }
      ],
      "name": "MessageAdded",
      "type": "event"
    },
    {
      "anonymous": false,
      "inputs": [
        {
          "indexed": false,
          "internalType": "uint256",
          "name": "groupId",
          "type": "uint256"
        },
        {
          "indexed": false,
          "internalType": "address",
          "name": "user",
          "type": "address"
        }
      ],
      "name": "UserJoinedGroup",
      "type": "event"
    },
    {
      "inputs": [],
      "name": "_postID",
      "outputs": [
        {
          "internalType": "uint256",
          "name": "",
          "type": "uint256"
        }
      ],
      "stateMutability": "view",
      "type": "function"
    },
    {
      "inputs": [],
      "name": "_userID",
      "outputs": [
        {
          "internalType": "uint256",
          "name": "",
          "type": "uint256"
        }
      ],
      "stateMutability": "view",
      "type": "function"
    },
    {
      "inputs": [
        {
          "internalType": "string",
          "name": "_comment",
          "type": "string"
        },
        {
          "internalType": "uint256",
          "name": "_postID",
          "type": "uint256"
        }
      ],
      "name": "addComment",
      "outputs": [],
      "stateMutability": "nonpayable",
      "type": "function"
    },
    {
      "inputs": [],
      "name": "admin",
      "outputs": [
        {
          "internalType": "address",
          "name": "",
          "type": "address"
        }
      ],
      "stateMutability": "view",
      "type": "function"
    },
    {
      "inputs": [
        {
          "internalType": "string",
          "name": "groupName",
          "type": "string"
        },
        {
          "internalType": "string",
          "name": "groupDescription",
          "type": "string"
        }
      ],
      "name": "createGroup",
      "outputs": [],
      "stateMutability": "nonpayable",
      "type": "function"
    },
    {
      "inputs": [
        {
          "internalType": "string",
          "name": "_type",
          "type": "string"
        },
        {
          "internalType": "string",
          "name": "_description",
          "type": "string"
        },
        {
          "internalType": "string",
          "name": "_postURL",
          "type": "string"
        }
      ],
      "name": "createPost",
      "outputs": [],
      "stateMutability": "nonpayable",
      "type": "function"
    },
    {
      "inputs": [
        {
          "internalType": "string",
          "name": "_name",
          "type": "string"
        }
      ],
      "name": "createProfile",
      "outputs": [],
      "stateMutability": "nonpayable",
      "type": "function"
    },
    {
      "inputs": [
        {
          "internalType": "uint256",
          "name": "id",
          "type": "uint256"
        }
      ],
      "name": "deletePost",
      "outputs": [],
      "stateMutability": "nonpayable",
      "type": "function"
    },
    {
      "inputs": [
        {
          "internalType": "uint256",
          "name": "_postID",
          "type": "uint256"
        },
        {
          "internalType": "string",
          "name": "_description",
          "type": "string"
        }
      ],
      "name": "editPost",
      "outputs": [],
      "stateMutability": "nonpayable",
      "type": "function"
    },
    {
      "inputs": [
        {
          "internalType": "address",
          "name": "_address",
          "type": "address"
        }
      ],
      "name": "follow",
      "outputs": [],
      "stateMutability": "nonpayable",
      "type": "function"
    },
    {
      "inputs": [],
      "name": "getAddresses",
      "outputs": [
        {
          "internalType": "address[]",
          "name": "",
          "type": "address[]"
        }
      ],
      "stateMutability": "view",
      "type": "function"
    },
    {
      "inputs": [],
      "name": "getAllAppUser",
      "outputs": [
        {
          "components": [
            {
              "internalType": "address",
              "name": "owner",
              "type": "address"
            },
            {
              "internalType": "string",
              "name": "name",
              "type": "string"
            },
            {
              "internalType": "uint256",
              "name": "timeCreated",
              "type": "uint256"
            },
            {
              "internalType": "uint256",
              "name": "id",
              "type": "uint256"
            },
            {
              "internalType": "uint256",
              "name": "postCount",
              "type": "uint256"
            },
            {
              "internalType": "uint256",
              "name": "followerCount",
              "type": "uint256"
            },
            {
              "internalType": "uint256",
              "name": "followingCount",
              "type": "uint256"
            }
          ],
          "internalType": "struct SocialMediaDapp.AllUserStruck[]",
          "name": "",
          "type": "tuple[]"
        }
      ],
      "stateMutability": "view",
      "type": "function"
    },
    {
      "inputs": [],
      "name": "getAllGroups",
      "outputs": [
        {
          "internalType": "uint256[]",
          "name": "",
          "type": "uint256[]"
        }
      ],
      "stateMutability": "view",
      "type": "function"
    },
    {
      "inputs": [],
      "name": "getAllPosts",
      "outputs": [
        {
          "components": [
            {
              "internalType": "address",
              "name": "author",
              "type": "address"
            },
            {
              "internalType": "string",
              "name": "postType",
              "type": "string"
            },
            {
              "internalType": "string",
              "name": "postDescription",
              "type": "string"
            },
            {
              "internalType": "string",
              "name": "postURL",
              "type": "string"
            },
            {
              "internalType": "uint256",
              "name": "timeCreated",
              "type": "uint256"
            },
            {
              "internalType": "uint256",
              "name": "postID",
              "type": "uint256"
            },
            {
              "internalType": "uint256",
              "name": "likes",
              "type": "uint256"
            },
            {
              "internalType": "string[]",
              "name": "comments",
              "type": "string[]"
            }
          ],
          "internalType": "struct SocialMediaDapp.Post[]",
          "name": "",
          "type": "tuple[]"
        }
      ],
      "stateMutability": "view",
      "type": "function"
    },
    {
      "inputs": [
        {
          "internalType": "address",
          "name": "_address",
          "type": "address"
        }
      ],
      "name": "getFollowers",
      "outputs": [
        {
          "internalType": "address[]",
          "name": "",
          "type": "address[]"
        }
      ],
      "stateMutability": "view",
      "type": "function"
    },
    {
      "inputs": [
        {
          "internalType": "address",
          "name": "_address",
          "type": "address"
        }
      ],
      "name": "getFollowing",
      "outputs": [
        {
          "internalType": "address[]",
          "name": "",
          "type": "address[]"
        }
      ],
      "stateMutability": "view",
      "type": "function"
    },
    {
      "inputs": [
        {
          "internalType": "uint256",
          "name": "groupId",
          "type": "uint256"
        }
      ],
      "name": "getGroupDetails",
      "outputs": [
        {
          "internalType": "address[]",
          "name": "members",
          "type": "address[]"
        },
        {
          "internalType": "string",
          "name": "name",
          "type": "string"
        },
        {
          "internalType": "string",
          "name": "description",
          "type": "string"
        },
        {
          "internalType": "uint256",
          "name": "groupID",
          "type": "uint256"
        }
      ],
      "stateMutability": "view",
      "type": "function"
    },
    {
      "inputs": [
        {
          "internalType": "uint256",
          "name": "groupId",
          "type": "uint256"
        }
      ],
      "name": "getGroupMessages",
      "outputs": [
        {
          "internalType": "string[]",
          "name": "",
          "type": "string[]"
        }
      ],
      "stateMutability": "view",
      "type": "function"
    },
    {
      "inputs": [
        {
          "internalType": "address",
          "name": "_address",
          "type": "address"
        }
      ],
      "name": "getPosts",
      "outputs": [
        {
          "components": [
            {
              "internalType": "address",
              "name": "author",
              "type": "address"
            },
            {
              "internalType": "string",
              "name": "postType",
              "type": "string"
            },
            {
              "internalType": "string",
              "name": "postDescription",
              "type": "string"
            },
            {
              "internalType": "string",
              "name": "postURL",
              "type": "string"
            },
            {
              "internalType": "uint256",
              "name": "timeCreated",
              "type": "uint256"
            },
            {
              "internalType": "uint256",
              "name": "postID",
              "type": "uint256"
            },
            {
              "internalType": "uint256",
              "name": "likes",
              "type": "uint256"
            },
            {
              "internalType": "string[]",
              "name": "comments",
              "type": "string[]"
            }
          ],
          "internalType": "struct SocialMediaDapp.Post[]",
          "name": "",
          "type": "tuple[]"
        }
      ],
      "stateMutability": "view",
      "type": "function"
    },
    {
      "inputs": [
        {
          "internalType": "uint256",
          "name": "_postID",
          "type": "uint256"
        }
      ],
      "name": "getSinglePost",
      "outputs": [
        {
          "internalType": "address",
          "name": "",
          "type": "address"
        },
        {
          "internalType": "string",
          "name": "",
          "type": "string"
        },
        {
          "internalType": "string",
          "name": "",
          "type": "string"
        },
        {
          "internalType": "string",
          "name": "",
          "type": "string"
        },
        {
          "internalType": "uint256",
          "name": "",
          "type": "uint256"
        },
        {
          "internalType": "uint256",
          "name": "",
          "type": "uint256"
        },
        {
          "internalType": "uint256",
          "name": "",
          "type": "uint256"
        },
        {
          "internalType": "string[]",
          "name": "",
          "type": "string[]"
        }
      ],
      "stateMutability": "view",
      "type": "function"
    },
    {
      "inputs": [],
      "name": "getUserCount",
      "outputs": [
        {
          "internalType": "uint256",
          "name": "",
          "type": "uint256"
        }
      ],
      "stateMutability": "view",
      "type": "function"
    },
    {
      "inputs": [
        {
          "internalType": "uint256",
          "name": "",
          "type": "uint256"
        }
      ],
      "name": "groups",
      "outputs": [
        {
          "internalType": "string",
          "name": "name",
          "type": "string"
        },
        {
          "internalType": "string",
          "name": "description",
          "type": "string"
        },
        {
          "internalType": "uint256",
          "name": "groupID",
          "type": "uint256"
        }
      ],
      "stateMutability": "view",
      "type": "function"
    },
    {
      "inputs": [
        {
          "internalType": "uint256",
          "name": "groupId",
          "type": "uint256"
        }
      ],
      "name": "joinGroup",
      "outputs": [],
      "stateMutability": "nonpayable",
      "type": "function"
    },
    {
      "inputs": [
        {
          "internalType": "uint256",
          "name": "_postID",
          "type": "uint256"
        }
      ],
      "name": "likePost",
      "outputs": [],
      "stateMutability": "nonpayable",
      "type": "function"
    },
    {
      "inputs": [
        {
          "internalType": "address",
          "name": "",
          "type": "address"
        }
      ],
      "name": "profiles",
      "outputs": [
        {
          "internalType": "address",
          "name": "owner",
          "type": "address"
        },
        {
          "internalType": "string",
          "name": "name",
          "type": "string"
        },
        {
          "internalType": "uint256",
          "name": "timeCreated",
          "type": "uint256"
        },
        {
          "internalType": "uint256",
          "name": "id",
          "type": "uint256"
        },
        {
          "internalType": "uint256",
          "name": "postCount",
          "type": "uint256"
        },
        {
          "internalType": "uint256",
          "name": "followerCount",
          "type": "uint256"
        },
        {
          "internalType": "uint256",
          "name": "followingCount",
          "type": "uint256"
        }
      ],
      "stateMutability": "view",
      "type": "function"
    },
    {
      "inputs": [
        {
          "internalType": "address",
          "name": "friend_key",
          "type": "address"
        }
      ],
      "name": "readMessage",
      "outputs": [
        {
          "components": [
            {
              "internalType": "address",
              "name": "sender",
              "type": "address"
            },
            {
              "internalType": "uint256",
              "name": "timestamp",
              "type": "uint256"
            },
            {
              "internalType": "string",
              "name": "msg",
              "type": "string"
            }
          ],
          "internalType": "struct SocialMediaDapp.message[]",
          "name": "",
          "type": "tuple[]"
        }
      ],
      "stateMutability": "view",
      "type": "function"
    },
    {
      "inputs": [
        {
          "internalType": "uint256",
          "name": "groupId",
          "type": "uint256"
        },
        {
          "internalType": "string",
          "name": "message",
          "type": "string"
        }
      ],
      "name": "sendGroupMessage",
      "outputs": [],
      "stateMutability": "nonpayable",
      "type": "function"
    },
    {
      "inputs": [
        {
          "internalType": "address",
          "name": "friend_key",
          "type": "address"
        },
        {
          "internalType": "string",
          "name": "_msg",
          "type": "string"
        }
      ],
      "name": "sendMessage",
      "outputs": [],
      "stateMutability": "nonpayable",
      "type": "function"
    },
    {
      "inputs": [],
      "name": "totalGroups",
      "outputs": [
        {
          "internalType": "uint256",
          "name": "",
          "type": "uint256"
        }
      ],
      "stateMutability": "view",
      "type": "function"
    },
    {
      "inputs": [],
      "name": "transferEther",
      "outputs": [],
      "stateMutability": "payable",
      "type": "function"
    },
    {
      "inputs": [
        {
          "internalType": "address",
          "name": "_address",
          "type": "address"
        }
      ],
      "name": "unfollow",
      "outputs": [],
      "stateMutability": "nonpayable",
      "type": "function"
    },
    {
      "inputs": [
        {
          "internalType": "uint256",
          "name": "_postID",
          "type": "uint256"
        }
      ],
      "name": "unlikePost",
      "outputs": [],
      "stateMutability": "nonpayable",
      "type": "function"
    }
  ],
  "bytecode": "0x608060405234801561001057600080fd5b50600080546001600160a01b03191633179055614cab806100326000396000f3fe6080604052600436106101e35760003560e01c8063b5cb15f711610102578063de6f24bb11610095578063f0fb254311610064578063f0fb25431461059b578063f851a440146105c8578063fa188de914610600578063fa99654a1461062057600080fd5b8063de6f24bb14610525578063e8a4a1eb14610545578063eea3ae9114610565578063eed02e4b1461057b57600080fd5b8063c75f2893116100d1578063c75f2893146104c7578063c999a7c7146104dd578063c9b25f0f146104fd578063d8236dff1461050557600080fd5b8063b5cb15f71461042b578063b86e6f0914610440578063bbe1562714610474578063c2fe2022146104a757600080fd5b80634dbf27cc1161017a57806396a3d8d71161014957806396a3d8d7146103975780639de5e76a146103b7578063a24d41de146103e7578063a39fac121461040957600080fd5b80634dbf27cc14610304578063725009d3146103245780638865fb751461034457806396324bd41461036857600080fd5b8063255e9c11116101b6578063255e9c111461027557806330561100146102a2578063334c3f0e146102c45780634caf9d0b146102e457600080fd5b8063015a4ead146101e8578063094cd5ee1461020a5780631e4a97dd1461022a57806321cd3cae1461024a575b600080fd5b3480156101f457600080fd5b50610208610203366004614087565b610640565b005b34801561021657600080fd5b506102086102253660046140a9565b610b1d565b34801561023657600080fd5b50610208610245366004614165565b610ce0565b34801561025657600080fd5b5061025f610e48565b60405161026c91906141c9565b60405180910390f35b34801561028157600080fd5b50610295610290366004614087565b610ee0565b60405161026c9190614253565b3480156102ae57600080fd5b506102b7611013565b60405161026c9190614330565b3480156102d057600080fd5b506102086102df36600461445c565b6114f5565b3480156102f057600080fd5b506102b76102ff366004614087565b6119ab565b34801561031057600080fd5b5061020861031f366004614087565b611d40565b34801561033057600080fd5b5061020861033f3660046140a9565b612149565b34801561035057600080fd5b5061035a600a5481565b60405190815260200161026c565b34801561037457600080fd5b506103886103833660046140a9565b612322565b60405161026c9392919061449e565b3480156103a357600080fd5b506102086103b23660046144d4565b612456565b3480156103c357600080fd5b506103d76103d23660046140a9565b6125b5565b60405161026c9493929190614564565b3480156103f357600080fd5b506103fc612767565b60405161026c91906145af565b34801561041557600080fd5b5061041e6128a0565b60405161026c9190614653565b34801561043757600080fd5b5060015461035a565b34801561044c57600080fd5b5061046061045b3660046140a9565b612902565b60405161026c989796959493929190614666565b34801561048057600080fd5b5061049461048f366004614087565b612f8f565b60405161026c97969594939291906146e6565b3480156104b357600080fd5b5061041e6104c2366004614087565b61305c565b3480156104d357600080fd5b5061035a60085481565b3480156104e957600080fd5b506102086104f8366004614732565b613140565b610208613213565b34801561051157600080fd5b5061041e610520366004614087565b613309565b34801561053157600080fd5b5061020861054036600461476f565b613382565b34801561055157600080fd5b506102086105603660046147c2565b61345d565b34801561057157600080fd5b5061035a60095481565b34801561058757600080fd5b506102086105963660046140a9565b613791565b3480156105a757600080fd5b506105bb6105b63660046140a9565b61386a565b60405161026c919061485c565b3480156105d457600080fd5b506000546105e8906001600160a01b031681565b6040516001600160a01b03909116815260200161026c565b34801561060c57600080fd5b5061020861061b3660046140a9565b613a13565b34801561062c57600080fd5b5061020861063b36600461486f565b613be8565b336000908152600360205260409020546001600160a01b03166106c85760405162461bcd60e51b815260206004820152603560248201527f4552524f523a203c4d7573742063726561746520612070726f66696c6520746f604482015274103832b93337b936903a3434b99030b1ba34b7b71f60591b60648201526084015b60405180910390fd5b6001600160a01b038082166000908152600360205260409020548291166107315760405162461bcd60e51b815260206004820152601f60248201527f4552524f523a203c50726f66696c6520646f6573206e6f742065786973743e0060448201526064016106bf565b816001600160a01b038116330361079d5760405162461bcd60e51b815260206004820152602a60248201527f4552524f52203c596f752063616e6e6f7420666f6c6c6f772f756e666f6c6c6f6044820152693b903cb7bab939b2b63360b11b60648201526084016106bf565b3360009081526005602090815260408083206001600160a01b038781168552925290912054166108355760405162461bcd60e51b815260206004820152602f60248201527f4552524f523a203c596f7520616c726561647920646f206e6f7420666f6c6c6f60448201527f7720746869732070726f66696c653e000000000000000000000000000000000060648201526084016106bf565b6001600160a01b0383166000908152600460209081526040808320338452909152812080546001600160a01b0319168155906108746001830182613ecc565b600282016000905560038201600090556004820160009055600582016000905560068201600090556007820160006108ac9190613f06565b6108ba600883016000613f06565b50503360009081526005602090815260408083206001600160a01b0387168452909152812080546001600160a01b0319168155906108fb6001830182613ecc565b600282016000905560038201600090556004820160009055600582016000905560068201600090556007820160006109339190613f06565b610941600883016000613f06565b505060005b6001600160a01b038416600090815260036020526040902060050154811015610a3a576001600160a01b0384166000908152600360205260409020600701805433919083908110610999576109996148a2565b6000918252602090912001546001600160a01b031603610a28576001600160a01b03841660009081526003602052604090206007018054829081106109e0576109e06148a2565b6000918252602080832090910180546001600160a01b03191690556001600160a01b03861682526003905260408120600501805491610a1e836148ce565b9190505550610a3a565b80610a32816148e5565b915050610946565b5060005b33600090815260036020526040902060060154811015610b175733600090815260036020526040902060080180546001600160a01b038616919083908110610a8857610a886148a2565b6000918252602090912001546001600160a01b031603610b0557336000908152600360205260409020600801805482908110610ac657610ac66148a2565b6000918252602080832090910180546001600160a01b03191690553382526003905260408120600601805491610afb836148ce565b9190505550610b17565b80610b0f816148e5565b915050610a3e565b50505050565b336000908152600360205260409020546001600160a01b0316610ba05760405162461bcd60e51b815260206004820152603560248201527f4552524f523a203c4d7573742063726561746520612070726f66696c6520746f604482015274103832b93337b936903a3434b99030b1ba34b7b71f60591b60648201526084016106bf565b336000908152600660205260408120805483908110610bc157610bc16148a2565b60009182526020909120600890910201546001600160a01b031603610c285760405162461bcd60e51b815260206004820152601360248201527f506f737420646f6573206e6f742065786973740000000000000000000000000060448201526064016106bf565b336000908152600660205260409020805482908110610c4957610c496148a2565b60009182526020822060089091020180546001600160a01b031916815590610c746001830182613ecc565b610c82600283016000613ecc565b610c90600383016000613ecc565b600482016000905560058201600090556006820160009055600782016000610cb89190613f24565b5050336000908152600360205260408120600401805491610cd8836148ce565b919050555050565b6000546001600160a01b03163314610d605760405162461bcd60e51b815260206004820152602160248201527f4f6e6c792061646d696e2063616e2063616c6c20746869732066756e6374696f60448201527f6e0000000000000000000000000000000000000000000000000000000000000060648201526084016106bf565b60088054906000610d70836148e5565b9091555050600854600081815260076020908152604082208254815460018101835582855292842090920180546001600160a01b0319166001600160a01b039093169290921790915590829052600201610dca8482614981565b506000818152600760205260409020600301610de68382614981565b50600081815260076020526040808220600401839055905490517fc09f0a6237c1950b9ce4e83dd96079ceb2154a5654481a8ae558cbe79e64473f91610e3b9184916001600160a01b03169087908790614a41565b60405180910390a1505050565b6060600060085467ffffffffffffffff811115610e6757610e676140c2565b604051908082528060200260200182016040528015610e90578160200160208202803683370190505b50905060005b600854811015610eda57610eab816001614a86565b828281518110610ebd57610ebd6148a2565b602090810291909101015280610ed2816148e5565b915050610e96565b50919050565b60606000610eee3384613dbb565b9050600b6000828152602001908152602001600020805480602002602001604051908101604052809291908181526020016000905b82821015611007576000848152602090819020604080516060810182526003860290920180546001600160a01b0316835260018101549383019390935260028301805492939291840191610f76906148fe565b80601f0160208091040260200160405190810160405280929190818152602001828054610fa2906148fe565b8015610fef5780601f10610fc457610100808354040283529160200191610fef565b820191906000526020600020905b815481529060010190602001808311610fd257829003601f168201915b50505050508152505081526020019060010190610f23565b50505050915050919050565b60606000805b60015481101561107d57600660006001838154811061103a5761103a6148a2565b60009182526020808320909101546001600160a01b031683528201929092526040019020546110699083614a86565b915080611075816148e5565b915050611019565b5060008167ffffffffffffffff811115611099576110996140c2565b60405190808252806020026020018201604052801561111b57816020015b61110860405180610100016040528060006001600160a01b03168152602001606081526020016060815260200160608152602001600081526020016000815260200160008152602001606081525090565b8152602001906001900390816110b75790505b5090506000805b6001548110156114ec5760005b6006600060018481548110611146576111466148a2565b60009182526020808320909101546001600160a01b031683528201929092526040019020548110156114d9576006600060018481548110611189576111896148a2565b60009182526020808320909101546001600160a01b0316835282019290925260400190208054829081106111bf576111bf6148a2565b600091825260209182902060408051610100810190915260089092020180546001600160a01b031682526001810180549293919291840191611200906148fe565b80601f016020809104026020016040519081016040528092919081815260200182805461122c906148fe565b80156112795780601f1061124e57610100808354040283529160200191611279565b820191906000526020600020905b81548152906001019060200180831161125c57829003601f168201915b50505050508152602001600282018054611292906148fe565b80601f01602080910402602001604051908101604052809291908181526020018280546112be906148fe565b801561130b5780601f106112e05761010080835404028352916020019161130b565b820191906000526020600020905b8154815290600101906020018083116112ee57829003601f168201915b50505050508152602001600382018054611324906148fe565b80601f0160208091040260200160405190810160405280929190818152602001828054611350906148fe565b801561139d5780601f106113725761010080835404028352916020019161139d565b820191906000526020600020905b81548152906001019060200180831161138057829003601f168201915b5050505050815260200160048201548152602001600582015481526020016006820154815260200160078201805480602002602001604051908101604052809291908181526020016000905b82821015611495578382906000526020600020018054611408906148fe565b80601f0160208091040260200160405190810160405280929190818152602001828054611434906148fe565b80156114815780601f1061145657610100808354040283529160200191611481565b820191906000526020600020905b81548152906001019060200180831161146457829003601f168201915b5050505050815260200190600101906113e9565b50505050815250508484815181106114af576114af6148a2565b60209081029190910101526114c5600184614a86565b9250806114d1816148e5565b91505061112f565b50806114e4816148e5565b915050611122565b50909392505050565b604080516000815260208101808352815190208492849261151a918591859101614a99565b604051602081830303815290604052805190602001200361157d5760405162461bcd60e51b815260206004820152601e60248201527f4552524f523a203c496e7075742063616e6e6f7420626520656d7074793e000060448201526064016106bf565b336000908152600360205260409020546001600160a01b0316156116095760405162461bcd60e51b815260206004820152602b60248201527f4552524f523a203c596f75206861766520616c7265616479206372656174656460448201527f20612070726f66696c653e00000000000000000000000000000000000000000060648201526084016106bf565b60006001600160a01b031660028585604051611626929190614a99565b908152604051908190036020019020546001600160a01b03161461168c5760405162461bcd60e51b815260206004820152601760248201527f4552524f523a203c557365726e616d652074616b656e3e00000000000000000060448201526064016106bf565b600a805490600061169c836148e5565b9091555050600a5460405133906002906116b99088908890614a99565b908152602001604051809103902060006101000a8154816001600160a01b0302191690836001600160a01b03160217905550604051806101200160405280336001600160a01b0316815260200186868080601f016020809104026020016040519081016040528093929190818152602001838380828437600092018290525093855250504260208401525060408201849052606082018190526080820181905260a0820181905260c09091019060405190808252806020026020018201604052801561178f578160200160208202803683370190505b50815260200160006040519080825280602002602001820160405280156117c0578160200160208202803683370190505b509052336000908152600360209081526040909120825181546001600160a01b0319166001600160a01b039091161781559082015160018201906118049082614981565b5060408201516002820155606082015160038201556080820151600482015560a0820151600582015560c0820151600682015560e08201518051611852916007840191602090910190613f42565b50610100820151805161186f916008840191602090910190613f42565b50506001805480820182556000919091527fb10e2d527612073b26eecdfd717e6a320cf44b4afac2b0732d9fcbe2b7fa0cf60180546001600160a01b031916339081179091556040805160e08101825291825280516020601f8901819004810282018101909252878152600c9350828201918990899081908401838280828437600092018290525093855250504260208085019190915260408401879052606084018390526080840183905260a09093018290525083546001808201865594825290829020835160079092020180546001600160a01b0319166001600160a01b0390921691909117815590820151919290919082019061196f9082614981565b5060408201518160020155606082015181600301556080820151816004015560a0820151816005015560c0820151816006015550505050505050565b6001600160a01b03808216600090815260036020526040902054606091839116611a175760405162461bcd60e51b815260206004820152601f60248201527f4552524f523a203c50726f66696c6520646f6573206e6f742065786973743e0060448201526064016106bf565b6001600160a01b038316600090815260066020908152604080832080548251818502810185019093528083529193909284015b828210156110075760008481526020908190206040805161010081019091526008850290910180546001600160a01b031682526001810180549293919291840191611a94906148fe565b80601f0160208091040260200160405190810160405280929190818152602001828054611ac0906148fe565b8015611b0d5780601f10611ae257610100808354040283529160200191611b0d565b820191906000526020600020905b815481529060010190602001808311611af057829003601f168201915b50505050508152602001600282018054611b26906148fe565b80601f0160208091040260200160405190810160405280929190818152602001828054611b52906148fe565b8015611b9f5780601f10611b7457610100808354040283529160200191611b9f565b820191906000526020600020905b815481529060010190602001808311611b8257829003601f168201915b50505050508152602001600382018054611bb8906148fe565b80601f0160208091040260200160405190810160405280929190818152602001828054611be4906148fe565b8015611c315780601f10611c0657610100808354040283529160200191611c31565b820191906000526020600020905b815481529060010190602001808311611c1457829003601f168201915b5050505050815260200160048201548152602001600582015481526020016006820154815260200160078201805480602002602001604051908101604052809291908181526020016000905b82821015611d29578382906000526020600020018054611c9c906148fe565b80601f0160208091040260200160405190810160405280929190818152602001828054611cc8906148fe565b8015611d155780601f10611cea57610100808354040283529160200191611d15565b820191906000526020600020905b815481529060010190602001808311611cf857829003601f168201915b505050505081526020019060010190611c7d565b505050508152505081526020019060010190611a4a565b336000908152600360205260409020546001600160a01b0316611dc35760405162461bcd60e51b815260206004820152603560248201527f4552524f523a203c4d7573742063726561746520612070726f66696c6520746f604482015274103832b93337b936903a3434b99030b1ba34b7b71f60591b60648201526084016106bf565b6001600160a01b03808216600090815260036020526040902054829116611e2c5760405162461bcd60e51b815260206004820152601f60248201527f4552524f523a203c50726f66696c6520646f6573206e6f742065786973743e0060448201526064016106bf565b816001600160a01b0381163303611e985760405162461bcd60e51b815260206004820152602a60248201527f4552524f52203c596f752063616e6e6f7420666f6c6c6f772f756e666f6c6c6f6044820152693b903cb7bab939b2b63360b11b60648201526084016106bf565b3360009081526005602090815260408083206001600160a01b0387811685529252909120541615611f315760405162461bcd60e51b815260206004820152602860248201527f4552524f523a203c596f7520616c726561647920666f6c6c6f7720746869732060448201527f70726f66696c653e00000000000000000000000000000000000000000000000060648201526084016106bf565b3360008181526003602090815260408083206001600160a01b0388811685526004845282852095855294909252909120815481546001600160a01b031916931692909217825590600180820190611f8a90840182614aa9565b5060028201548160020155600382015481600301556004820154816004015560058201548160050155600682015481600601556007820181600701908054611fd3929190613fa7565b5060088281018054611fe89284019190613fa7565b5050506001600160a01b03808416600081815260036020908152604080832033845260058352818420948452939091529020815481546001600160a01b03191693169290921782559060018082019061204390840182614aa9565b506002820154816002015560038201548160030155600482015481600401556005820154816005015560068201548160060155600782018160070190805461208c929190613fa7565b50600882810180546120a19284019190613fa7565b5050506001600160a01b038316600081815260036020908152604080832060078101805460018082018355918652848620018054336001600160a01b03199182168117909255908652928520600801805491820181558552928420909201805490911684179055918152600590910180549161211c836148e5565b909155505033600090815260036020526040812060060180549161213f836148e5565b9190505550505050565b336000908152600360205260409020546001600160a01b03166121cc5760405162461bcd60e51b815260206004820152603560248201527f4552524f523a203c4d7573742063726561746520612070726f66696c6520746f604482015274103832b93337b936903a3434b99030b1ba34b7b71f60591b60648201526084016106bf565b60005b60015481101561231e5760005b60066000600184815481106121f3576121f36148a2565b60009182526020808320909101546001600160a01b0316835282019290925260400190205481101561230b57826006600060018581548110612237576122376148a2565b60009182526020808320909101546001600160a01b03168352820192909252604001902080548390811061226d5761226d6148a2565b906000526020600020906008020160050154036122f957600660006001848154811061229b5761229b6148a2565b60009182526020808320909101546001600160a01b0316835282019290925260400190208054829081106122d1576122d16148a2565b6000918252602082206006600890920201018054916122ef836148e5565b919050555061230b565b80612303816148e5565b9150506121dc565b5080612316816148e5565b9150506121cf565b5050565b600760205260009081526040902060028101805461233f906148fe565b80601f016020809104026020016040519081016040528092919081815260200182805461236b906148fe565b80156123b85780601f1061238d576101008083540402835291602001916123b8565b820191906000526020600020905b81548152906001019060200180831161239b57829003601f168201915b5050505050908060030180546123cd906148fe565b80601f01602080910402602001604051908101604052809291908181526020018280546123f9906148fe565b80156124465780601f1061241b57610100808354040283529160200191612446565b820191906000526020600020905b81548152906001019060200180831161242957829003601f168201915b5050505050908060040154905083565b60005b600154811015610b175760005b600660006001848154811061247d5761247d6148a2565b60009182526020808320909101546001600160a01b031683528201929092526040019020548110156125a2578260066000600185815481106124c1576124c16148a2565b60009182526020808320909101546001600160a01b0316835282019290925260400190208054839081106124f7576124f76148a2565b90600052602060002090600802016005015403612590576006600060018481548110612525576125256148a2565b60009182526020808320909101546001600160a01b03168352820192909252604001902080548290811061255b5761255b6148a2565b60009182526020808320600760089093020191909101805460018101825590835291200161258a858783614b84565b506125a2565b8061259a816148e5565b915050612466565b50806125ad816148e5565b915050612459565b606080606060008060076000878152602001908152602001600020905080600001816002018260030183600401548380548060200260200160405190810160405280929190818152602001828054801561263857602002820191906000526020600020905b81546001600160a01b0316815260019091019060200180831161261a575b5050505050935082805461264b906148fe565b80601f0160208091040260200160405190810160405280929190818152602001828054612677906148fe565b80156126c45780601f10612699576101008083540402835291602001916126c4565b820191906000526020600020905b8154815290600101906020018083116126a757829003601f168201915b505050505092508180546126d7906148fe565b80601f0160208091040260200160405190810160405280929190818152602001828054612703906148fe565b80156127505780601f1061272557610100808354040283529160200191612750565b820191906000526020600020905b81548152906001019060200180831161273357829003601f168201915b505050505091509450945094509450509193509193565b6060600c805480602002602001604051908101604052809291908181526020016000905b828210156128975760008481526020908190206040805160e081019091526007850290910180546001600160a01b0316825260018101805492939192918401916127d4906148fe565b80601f0160208091040260200160405190810160405280929190818152602001828054612800906148fe565b801561284d5780601f106128225761010080835404028352916020019161284d565b820191906000526020600020905b81548152906001019060200180831161283057829003601f168201915b50505050508152602001600282015481526020016003820154815260200160048201548152602001600582015481526020016006820154815250508152602001906001019061278b565b50505050905090565b606060018054806020026020016040519081016040528092919081815260200182805480156128f857602002820191906000526020600020905b81546001600160a01b031681526001909101906020018083116128da575b5050505050905090565b600060608060606000806000606060005b600154811015612f825760005b6006600060018481548110612937576129376148a2565b60009182526020808320909101546001600160a01b03168352820192909252604001902054811015612f6f578a600660006001858154811061297b5761297b6148a2565b60009182526020808320909101546001600160a01b0316835282019290925260400190208054839081106129b1576129b16148a2565b90600052602060002090600802016005015403612f5d5760066000600184815481106129df576129df6148a2565b60009182526020808320909101546001600160a01b031683528201929092526040019020805482908110612a1557612a156148a2565b906000526020600020906008020160000160009054906101000a90046001600160a01b03166006600060018581548110612a5157612a516148a2565b60009182526020808320909101546001600160a01b031683528201929092526040019020805483908110612a8757612a876148a2565b90600052602060002090600802016001016006600060018681548110612aaf57612aaf6148a2565b60009182526020808320909101546001600160a01b031683528201929092526040019020805484908110612ae557612ae56148a2565b90600052602060002090600802016002016006600060018781548110612b0d57612b0d6148a2565b60009182526020808320909101546001600160a01b031683528201929092526040019020805485908110612b4357612b436148a2565b90600052602060002090600802016003016006600060018881548110612b6b57612b6b6148a2565b60009182526020808320909101546001600160a01b031683528201929092526040019020805486908110612ba157612ba16148a2565b9060005260206000209060080201600401546006600060018981548110612bca57612bca6148a2565b60009182526020808320909101546001600160a01b031683528201929092526040019020805487908110612c0057612c006148a2565b9060005260206000209060080201600501546006600060018a81548110612c2957612c296148a2565b60009182526020808320909101546001600160a01b031683528201929092526040019020805488908110612c5f57612c5f6148a2565b9060005260206000209060080201600601546006600060018b81548110612c8857612c886148a2565b60009182526020808320909101546001600160a01b031683528201929092526040019020805489908110612cbe57612cbe6148a2565b9060005260206000209060080201600701868054612cdb906148fe565b80601f0160208091040260200160405190810160405280929190818152602001828054612d07906148fe565b8015612d545780601f10612d2957610100808354040283529160200191612d54565b820191906000526020600020905b815481529060010190602001808311612d3757829003601f168201915b50505050509650858054612d67906148fe565b80601f0160208091040260200160405190810160405280929190818152602001828054612d93906148fe565b8015612de05780601f10612db557610100808354040283529160200191612de0565b820191906000526020600020905b815481529060010190602001808311612dc357829003601f168201915b50505050509550848054612df3906148fe565b80601f0160208091040260200160405190810160405280929190818152602001828054612e1f906148fe565b8015612e6c5780601f10612e4157610100808354040283529160200191612e6c565b820191906000526020600020905b815481529060010190602001808311612e4f57829003601f168201915b5050505050945080805480602002602001604051908101604052809291908181526020016000905b82821015612f40578382906000526020600020018054612eb3906148fe565b80601f0160208091040260200160405190810160405280929190818152602001828054612edf906148fe565b8015612f2c5780601f10612f0157610100808354040283529160200191612f2c565b820191906000526020600020905b815481529060010190602001808311612f0f57829003601f168201915b505050505081526020019060010190612e94565b505050509050995099509950995099509950995099505050612f84565b80612f67816148e5565b915050612920565b5080612f7a816148e5565b915050612913565b505b919395975091939597565b600360205260009081526040902080546001820180546001600160a01b039092169291612fbb906148fe565b80601f0160208091040260200160405190810160405280929190818152602001828054612fe7906148fe565b80156130345780601f1061300957610100808354040283529160200191613034565b820191906000526020600020905b81548152906001019060200180831161301757829003601f168201915b5050505050908060020154908060030154908060040154908060050154908060060154905087565b6001600160a01b038082166000908152600360205260409020546060918391166130c85760405162461bcd60e51b815260206004820152601f60248201527f4552524f523a203c50726f66696c6520646f6573206e6f742065786973743e0060448201526064016106bf565b6001600160a01b0383166000908152600360209081526040918290206007018054835181840281018401909452808452909183018282801561313357602002820191906000526020600020905b81546001600160a01b03168152600190910190602001808311613115575b5050505050915050919050565b8161314b8133613e52565b6131a95760405162461bcd60e51b815260206004820152602960248201527f4f6e6c792067726f7570206d656d626572732063616e2063616c6c207468697360448201526810333ab731ba34b7b760b91b60648201526084016106bf565b6000838152600760209081526040808320438452600181019092529091206131d18482614981565b507f04f05716f2a71826f9fb2de2e8e652fa813602db4ea3774e0283f75d598de4cb84338560405161320593929190614c44565b60405180910390a150505050565b600034116132635760405162461bcd60e51b815260206004820152601f60248201527f416d6f756e742073686f756c642062652067726561746572207468616e20300060448201526064016106bf565b600080546040516001600160a01b039091169034908381818185875af1925050503d80600081146132b0576040519150601f19603f3d011682016040523d82523d6000602084013e6132b5565b606091505b50509050806133065760405162461bcd60e51b815260206004820152600f60248201527f5472616e73666572206661696c6564000000000000000000000000000000000060448201526064016106bf565b50565b6001600160a01b03811660009081526003602090815260409182902060080180548351818402810184019094528084526060939283018282801561337657602002820191906000526020600020905b81546001600160a01b03168152600190910190602001808311613358575b50505050509050919050565b600061338e3385613dbb565b905060006040518060600160405280336001600160a01b0316815260200142815260200185858080601f0160208091040260200160405190810160405280939291908181526020018383808284376000920182905250939094525050848152600b6020908152604080832080546001808201835591855293839020865160039095020180546001600160a01b0319166001600160a01b039095169490941784559185015191830191909155830151929350839290915060028201906134539082614981565b5050505050505050565b336000908152600360205260409020546001600160a01b03166134e05760405162461bcd60e51b815260206004820152603560248201527f4552524f523a203c4d7573742063726561746520612070726f66696c6520746f604482015274103832b93337b936903a3434b99030b1ba34b7b71f60591b60648201526084016106bf565b6040805160008152602081018083528151902088928892613505918591859101614a99565b60405160208183030381529060405280519060200120036135685760405162461bcd60e51b815260206004820152601e60248201527f4552524f523a203c496e7075742063616e6e6f7420626520656d7074793e000060448201526064016106bf565b60098054906000613578836148e5565b9091555050600954604080516101008101825233815281516020601f8c018190048102820181019093528a815260009280830191908d908d9081908401838280828437600092019190915250505090825250604080516020601f8c018190048102820181019092528a815291810191908b908b9081908401838280828437600092019190915250505090825250604080516020601f8a01819004810282018101909252888152918101919089908990819084018382808284376000920182905250938552505042602084015250604082018590526060820181905260809091019060405190808252806020026020018201604052801561368c57816020015b60608152602001906001900390816136775790505b50905280516001600160a01b039081166000908152600660209081526040822080546001808201835591845292829020855160089094020180546001600160a01b031916939094169290921783558301519293508392908201906136f09082614981565b50604082015160028201906137059082614981565b506060820151600382019061371a9082614981565b506080820151600482015560a0820151600582015560c0820151600682015560e08201518051613754916007840191602090910190613fe7565b505081516001600160a01b031660009081526003602052604081206004018054925090613780836148e5565b919050555050505050505050505050565b60008181526007602052604090206137a98233613e52565b156137f65760405162461bcd60e51b815260206004820152601860248201527f5573657220697320616c72656164792061206d656d626572000000000000000060448201526064016106bf565b80546001810182556000828152602090200180546001600160a01b031916339081179091556040517fb862ff571a9978e20d10b8fde04ebd930f5066e38fca239d86913ad22169ddec9161385e918591909182526001600160a01b0316602082015260400190565b60405180910390a15050565b6060816138778133613e52565b6138d55760405162461bcd60e51b815260206004820152602960248201527f4f6e6c792067726f7570206d656d626572732063616e2063616c6c207468697360448201526810333ab731ba34b7b760b91b60648201526084016106bf565b60008381526007602052604081209043908167ffffffffffffffff8111156138ff576138ff6140c2565b60405190808252806020026020018201604052801561393257816020015b606081526020019060019003908161391d5790505b50905060005b82811015613a095760008181526001850160205260409020805461395b906148fe565b80601f0160208091040260200160405190810160405280929190818152602001828054613987906148fe565b80156139d45780601f106139a9576101008083540402835291602001916139d4565b820191906000526020600020905b8154815290600101906020018083116139b757829003601f168201915b50505050508282815181106139eb576139eb6148a2565b60200260200101819052508080613a01906148e5565b915050613938565b5095945050505050565b336000908152600360205260409020546001600160a01b0316613a965760405162461bcd60e51b815260206004820152603560248201527f4552524f523a203c4d7573742063726561746520612070726f66696c6520746f604482015274103832b93337b936903a3434b99030b1ba34b7b71f60591b60648201526084016106bf565b60005b60015481101561231e5760005b6006600060018481548110613abd57613abd6148a2565b60009182526020808320909101546001600160a01b03168352820192909252604001902054811015613bd557826006600060018581548110613b0157613b016148a2565b60009182526020808320909101546001600160a01b031683528201929092526040019020805483908110613b3757613b376148a2565b90600052602060002090600802016005015403613bc3576006600060018481548110613b6557613b656148a2565b60009182526020808320909101546001600160a01b031683528201929092526040019020805482908110613b9b57613b9b6148a2565b600091825260208220600660089092020101805491613bb9836148ce565b9190505550613bd5565b80613bcd816148e5565b915050613aa6565b5080613be0816148e5565b915050613a99565b336000908152600360205260409020546001600160a01b0316613c6b5760405162461bcd60e51b815260206004820152603560248201527f4552524f523a203c4d7573742063726561746520612070726f66696c6520746f604482015274103832b93337b936903a3434b99030b1ba34b7b71f60591b60648201526084016106bf565b60005b600154811015610b175760005b6006600060018481548110613c9257613c926148a2565b60009182526020808320909101546001600160a01b03168352820192909252604001902054811015613da857846006600060018581548110613cd657613cd66148a2565b60009182526020808320909101546001600160a01b031683528201929092526040019020805483908110613d0c57613d0c6148a2565b90600052602060002090600802016005015403613d965783836006600060018681548110613d3c57613d3c6148a2565b60009182526020808320909101546001600160a01b031683528201929092526040019020805484908110613d7257613d726148a2565b90600052602060002090600802016002019182613d90929190614b84565b50613da8565b80613da0816148e5565b915050613c7b565b5080613db3816148e5565b915050613c6e565b6000816001600160a01b0316836001600160a01b03161015613e1e576040516bffffffffffffffffffffffff19606085811b8216602084015284901b1660348201526048015b604051602081830303815290604052805190602001209050613e4c565b6040516bffffffffffffffffffffffff19606084811b8216602084015285901b166034820152604801613e01565b92915050565b6000828152600760205260408120815b8154811015613ec157836001600160a01b0316826000018281548110613e8a57613e8a6148a2565b6000918252602090912001546001600160a01b031603613eaf57600192505050613e4c565b80613eb9816148e5565b915050613e62565b506000949350505050565b508054613ed8906148fe565b6000825580601f10613ee8575050565b601f0160209004906000526020600020908101906133069190614039565b50805460008255906000526020600020908101906133069190614039565b5080546000825590600052602060002090810190613306919061404e565b828054828255906000526020600020908101928215613f97579160200282015b82811115613f9757825182546001600160a01b0319166001600160a01b03909116178255602090920191600190910190613f62565b50613fa3929150614039565b5090565b828054828255906000526020600020908101928215613f975760005260206000209182015b82811115613f97578254825591600101919060010190613fcc565b82805482825590600052602060002090810192821561402d579160200282015b8281111561402d578251829061401d9082614981565b5091602001919060010190614007565b50613fa392915061404e565b5b80821115613fa3576000815560010161403a565b80821115613fa35760006140628282613ecc565b5060010161404e565b80356001600160a01b038116811461408257600080fd5b919050565b60006020828403121561409957600080fd5b6140a28261406b565b9392505050565b6000602082840312156140bb57600080fd5b5035919050565b634e487b7160e01b600052604160045260246000fd5b600082601f8301126140e957600080fd5b813567ffffffffffffffff80821115614104576141046140c2565b604051601f8301601f19908116603f0116810190828211818310171561412c5761412c6140c2565b8160405283815286602085880101111561414557600080fd5b836020870160208301376000602085830101528094505050505092915050565b6000806040838503121561417857600080fd5b823567ffffffffffffffff8082111561419057600080fd5b61419c868387016140d8565b935060208501359150808211156141b257600080fd5b506141bf858286016140d8565b9150509250929050565b6020808252825182820181905260009190848201906040850190845b81811015614201578351835292840192918401916001016141e5565b50909695505050505050565b6000815180845260005b8181101561423357602081850181015186830182015201614217565b506000602082860101526020601f19601f83011685010191505092915050565b60006020808301818452808551808352604092508286019150828160051b87010184880160005b838110156142cd57888303603f19018552815180516001600160a01b03168452878101518885015286015160608785018190526142b98186018361420d565b96890196945050509086019060010161427a565b509098975050505050505050565b600081518084526020808501808196508360051b8101915082860160005b8581101561432357828403895261431184835161420d565b988501989350908401906001016142f9565b5091979650505050505050565b60006020808301818452808551808352604092508286019150828160051b87010184880160005b838110156142cd57888303603f19018552815180516001600160a01b0316845261010088820151818a87015261438f8287018261420d565b91505087820151858203898701526143a7828261420d565b915050606080830151868303828801526143c1838261420d565b6080858101519089015260a0808601519089015260c0808601519089015260e0948501518882039589019590955292506143ff9150829050836142db565b968901969450505090860190600101614357565b60008083601f84011261442557600080fd5b50813567ffffffffffffffff81111561443d57600080fd5b60208301915083602082850101111561445557600080fd5b9250929050565b6000806020838503121561446f57600080fd5b823567ffffffffffffffff81111561448657600080fd5b61449285828601614413565b90969095509350505050565b6060815260006144b1606083018661420d565b82810360208401526144c3818661420d565b915050826040830152949350505050565b6000806000604084860312156144e957600080fd5b833567ffffffffffffffff81111561450057600080fd5b61450c86828701614413565b909790965060209590950135949350505050565b600081518084526020808501945080840160005b838110156145595781516001600160a01b031687529582019590820190600101614534565b509495945050505050565b6080815260006145776080830187614520565b8281036020840152614589818761420d565b9050828103604084015261459d818661420d565b91505082606083015295945050505050565b60006020808301818452808551808352604092508286019150828160051b87010184880160005b838110156142cd57603f19898403018552815160e06001600160a01b03825116855288820151818a87015261460d8287018261420d565b838a0151878b0152606080850151908801526080808501519088015260a0808501519088015260c0938401519390960192909252505093860193908601906001016145d6565b6020815260006140a26020830184614520565b60006101006001600160a01b038b1683528060208401526146898184018b61420d565b9050828103604084015261469d818a61420d565b905082810360608401526146b1818961420d565b90508660808401528560a08401528460c084015282810360e08401526146d781856142db565b9b9a5050505050505050505050565b6001600160a01b038816815260e06020820152600061470860e083018961420d565b6040830197909752506060810194909452608084019290925260a083015260c09091015292915050565b6000806040838503121561474557600080fd5b82359150602083013567ffffffffffffffff81111561476357600080fd5b6141bf858286016140d8565b60008060006040848603121561478457600080fd5b61478d8461406b565b9250602084013567ffffffffffffffff8111156147a957600080fd5b6147b586828701614413565b9497909650939450505050565b600080600080600080606087890312156147db57600080fd5b863567ffffffffffffffff808211156147f357600080fd5b6147ff8a838b01614413565b9098509650602089013591508082111561481857600080fd5b6148248a838b01614413565b9096509450604089013591508082111561483d57600080fd5b5061484a89828a01614413565b979a9699509497509295939492505050565b6020815260006140a260208301846142db565b60008060006040848603121561488457600080fd5b83359250602084013567ffffffffffffffff8111156147a957600080fd5b634e487b7160e01b600052603260045260246000fd5b634e487b7160e01b600052601160045260246000fd5b6000816148dd576148dd6148b8565b506000190190565b6000600182016148f7576148f76148b8565b5060010190565b600181811c9082168061491257607f821691505b602082108103610eda57634e487b7160e01b600052602260045260246000fd5b601f82111561497c57600081815260208120601f850160051c810160208610156149595750805b601f850160051c820191505b8181101561497857828155600101614965565b5050505b505050565b815167ffffffffffffffff81111561499b5761499b6140c2565b6149af816149a984546148fe565b84614932565b602080601f8311600181146149e457600084156149cc5750858301515b600019600386901b1c1916600185901b178555614978565b600085815260208120601f198616915b82811015614a13578886015182559484019460019091019084016149f4565b5085821015614a315787850151600019600388901b60f8161c191681555b5050505050600190811b01905550565b8481526001600160a01b0384166020820152608060408201526000614a69608083018561420d565b8281036060840152614a7b818561420d565b979650505050505050565b80820180821115613e4c57613e4c6148b8565b8183823760009101908152919050565b818103614ab4575050565b614abe82546148fe565b67ffffffffffffffff811115614ad657614ad66140c2565b614ae4816149a984546148fe565b6000601f821160018114614b185760008315614b005750848201545b600019600385901b1c1916600184901b178455614b7d565b600085815260209020601f19841690600086815260209020845b83811015614b525782860154825560019586019590910190602001614b32565b5085831015614b705781850154600019600388901b60f8161c191681555b50505060018360011b0184555b5050505050565b67ffffffffffffffff831115614b9c57614b9c6140c2565b614bb083614baa83546148fe565b83614932565b6000601f841160018114614be45760008515614bcc5750838201355b600019600387901b1c1916600186901b178355614b7d565b600083815260209020601f19861690835b82811015614c155786850135825560209485019460019092019101614bf5565b5086821015614c325760001960f88860031b161c19848701351681555b505060018560011b0183555050505050565b8381526001600160a01b0383166020820152606060408201526000614c6c606083018461420d565b9594505050505056fea2646970667358221220a102b0bda8adab93c0fabe0e1f738dc8e68bb2b4b0e61f8d71062480938b3aa564736f6c63430008120033",
  "linkReferences": {},
  "deployedLinkReferences": {}
}